:100000000C9462000C948A000C948A000C948A0070
:100010000C948A000C948A000C948A000C948A0038
:100020000C948A000C948A000C948A000C948A0028
:100030000C948A000C948A000C948A000C948A0018
:100040000C9437060C948A000C9405060C94DF057A
:100050000C948A000C948A000C948A000C948A00F8
:100060000C948A000C948A000000000024002700F1
:100070002A0000000000250028002B0000000000DE
:1000800023002600290004040404040404040202DA
:100090000202020203030303030301020408102007
:1000A0004080010204081020010204081020000012
:1000B0000008000201000003040700000000000027
:1000C0000000810611241FBECFEFD8E0DEBFCDBFF8
:1000D00012E0A0E0B1E0E6ECFDE102C005900D9277
:1000E000A430B107D9F723E0A4E0B2E001C01D922B
:1000F000A034B207E1F710E0C2E6D0E004C02197D7
:10010000FE010E94DB0EC136D107C9F70E943907F4
:100110000C94E10E0C94000096E0899FD00111240C
:10012000AF52BD4F90967C936E935F9791E09196FE
:100130009C939197E0913E03F0913F0390913D0392
:10014000992339F0309751F0811108C08091ED0268
:100150000994309719F05C968C91FACF0895CF925C
:10016000DF92EF92FF920F931F9396E0899FF00129
:100170001124EF52FD4F11A2278D30A121303105FE
:1001800051F178F02230310509F451C023303105A6
:1001900009F452C01F910F91FF90EF90DF90CF9024
:1001A00008956623B9F361E070E00E948C002FB7D8
:1001B000F8948091180290911902A0911A02B091BE
:1001C0001B022FBF8093290390932A03A0932B0334
:1001D000B0932C03DFCF9FB7F894C0901802D09053
:1001E0001902E0901A02F0901B029FBF00912903B0
:1001F00010912A0320912B0330912C03C01AD10AAD
:10020000E20AF30A00913B0310913C0330E020E046
:100210000C151D052E053F0550F462E070E01F919E
:100220000F91FF90EF90DF90CF900C948C006111B4
:10023000B1CF63E070E0F3CF70E060E0F0CFFC019D
:10024000538D448D252F30E0842F90E0821B930B3B
:10025000541710F0CF96089501970895FC01918DE1
:10026000828D981761F0A28DAE0FBF2FB11D5D96E4
:100270008C91928D9F5F9F73928F90E008958FEF86
:100280009FEF0895FC01918D828D981731F0828D3A
:10029000E80FF11D858D90E008958FEF9FEF089591
:1002A000FC01918D228D892F90E0805C9F4F821BF5
:1002B00091098F7399270895FC01A48DA80FB92F78
:1002C000B11DA35ABF4F2C91848D90E001968F737E
:1002D0009927848FA689B7892C93A089B1898C919D
:1002E000837080648C93938D848D981306C00288EC
:1002F000F389E02D80818F7D80830895EF92FF92B6
:100300000F931F93CF93DF93EC0181E0888F9B8D38
:100310008C8D98131AC0E889F989808185FF15C0F2
:100320009FB7F894EE89FF896083E889F989808115
:100330008370806480839FBF81E090E0DF91CF91E4
:100340001F910F91FF90EF900895F62E0B8D10E006
:100350000F5F1F4F0F731127E02E8C8D8E110CC075
:100360000FB607FCFACFE889F989808185FFF5CFC0
:10037000CE010E945C01F1CFEB8DEC0FFD2FF11D42
:10038000E35AFF4FF0829FB7F8940B8FEA89FB89FD
:1003900080818062CFCFCF93DF93EC01888D88235B
:1003A000B9F0AA89BB89E889F9898C9185FD03C0D8
:1003B000808186FD0DC00FB607FCF7CF8C9185FFBD
:1003C000F2CF808185FFEDCFCE010E945C01E9CFA5
:1003D000DF91CF9108958CE192E00E94500121E0DD
:1003E000892B09F420E0822F089580E090E0892B8A
:1003F00029F00E94EB0181110C9400000895AF9246
:10040000BF92CF92DF92EF92FF920F931F93CF9301
:10041000DF936C017B018B01040F151FEB015E0163
:10042000AE18BF08C017D10759F06991D601ED91F8
:10043000FC910190F081E02DC6010995892B79F797
:10044000C501DF91CF911F910F91FF90EF90DF9049
:10045000CF90BF90AF900895833081F028F4813021
:1004600099F08230A9F008958730A9F08830C9F05A
:100470008430B1F4809180008F7D03C08091800032
:100480008F7780938000089584B58F7784BD089519
:1004900084B58F7DFBCF8091B0008F778093B000C3
:1004A00008958091B0008F7DF9CFCF93DF93282FEF
:1004B00030E0F901E255FF4F8491F901E656FF4F14
:1004C000D491F901EA57FF4FC491CC23A1F08111D7
:1004D0000E942C02EC2FF0E0EE0FFF1FE458FF4FBC
:1004E000A591B491EC91ED2381E090E009F480E0D6
:1004F000DF91CF91089580E090E0FACF862F0C94A1
:1005000055021F93CF93DF93282F30E0F901E25576
:10051000FF4F8491F901E656FF4FD491F901EA5754
:10052000FF4FC491CC23A9F0162F81110E942C02F9
:10053000EC2FF0E0EE0FFF1FEE58FF4FA591B491A6
:100540008FB7F894EC91111108C0D095DE23DC939D
:100550008FBFDF91CF911F910895DE2BF8CF862FAB
:10056000642F0C948102CF93DF9390E0FC01E65658
:10057000FF4F24918A579F4FFC0184918823C9F033
:1005800090E0880F991FFC01E859FF4FA591B491A5
:10059000FC01EE58FF4FC591D49161110DC09FB77A
:1005A000F8948C91209582238C938881282328832A
:1005B0009FBFDF91CF910895623051F49FB7F894B7
:1005C0003C91822F809583238C93E8812E2BEFCF53
:1005D0008FB7F894EC912E2B2C938FBFEACF862FF8
:1005E000642F0C94B3023FB7F89480910502909168
:1005F0000602A0910702B091080226B5A89B05C08B
:100600002F3F19F00196A11DB11D3FBFBA2FA92F91
:10061000982F8827BC01CD01620F711D811D911D8E
:1006200042E0660F771F881F991F4A95D1F70895FA
:100630008F929F92AF92BF92CF92DF92EF92FF92F2
:100640004B015C010E94F3026B017C010E94F302EA
:100650006C197D098E099F09683E734081059105DB
:10066000A8F321E0821A9108A108B10888EEC80E0B
:1006700083E0D81EE11CF11C81149104A104B10493
:1006800029F7FF90EF90DF90CF90BF90AF909F90B1
:100690008F900895089590E080E00895CF93DF93C0
:1006A000EC0160E08E810E94810261E08E810E94F7
:1006B000810260E08E810E9481028BE891E00197C7
:1006C000F1F7DF91CF910895CF92DF92EF92FF92F1
:1006D0000F931F93CF93DF936C017C0187E0E80EAB
:1006E000F11CD0E0C0E0062F10E0B8010C2E02C0D3
:1006F000759567950A94E2F76170F70181917F0122
:100700000E9481022196C430D10579F7C601DF919C
:10071000CF911F910F91FF90EF90DF90CF900C94AD
:100720004E03CF92DF92EF92FF920F931F93CF93DE
:10073000DF93EC01F62E642F8C810E9481028D8163
:100740008F3F19F060E00E9481020F2D10E08F852D
:1007500084FF25C06E0187E0C80ED11CF12CE12C6E
:10076000B8010E2C02C0759567950A94E2F7617086
:10077000F60181916F010E948102FFEFEF1AFF0ADB
:1007800088E0E816F10461F7CE01DF91CF911F9167
:100790000F91FF90EF90DF90CF900C944E03B80133
:1007A00084E0759567958A95E1F7CE010E94640310
:1007B0006F2DCE01DF91CF911F910F91FF90EF90A0
:1007C000DF90CF900C94640340E0682F89EB92E0B7
:1007D0000C94910381E00E94E4038BE39FE1019775
:1007E000F1F70895CF93DF93823029F49091C802F6
:1007F00098609093C8028093CC021092CD0280E45E
:100800008093CE0280E18093CF0280E58093D00276
:1008100061E08091BD020E94B3028091BE028F3FD1
:1008200019F061E00E94B30261E08091BF020E9472
:10083000B302C9EBD2E09E01295B32408091C8022D
:1008400084FD0BC084E090E021962817390744F41A
:1008500061E08E810E94B302EECF88E090E0F4CF99
:100860008BE39DE00197F1F760E08091BD020E946B
:10087000810260E08091BF020E9481028091BE02ED
:100880008F3F19F060E00E9481028091C80284FDD0
:1008900034C063E089EB92E00E946403CBE4D6E4C9
:1008A000CE010197F1F763E089EB92E00E946403C7
:1008B0002197F1F763E089EB92E00E94640383E5FE
:1008C00092E00197F1F762E089EB92E00E94640305
:1008D0008091C80280620E94E40384E08093C90290
:1008E0008CE00E94E4030E94EA0382E08093CA0243
:1008F00086E0DF91CF910C94E40380620E94E403D0
:100900008BE496E40197F1F78091C80280620E941F
:10091000E40383E592E00197F1F78091C8028062D9
:100920000E94E403D5CF41E00E94910381E090E072
:100930000895FB0101900020E9F73197AF01461BB4
:10094000570BDC01ED91FC910280F381E02D0994BD
:100950008F929F92AF92BF920F931F93CF93DF938B
:10096000CDB7DEB7A1970FB6F894DEBF0FBECDBFEF
:1009700019A2423008F44AE08E010F5D1F4F842E09
:10098000912CB12CA12CA50194010E94B90EE62F47
:10099000B901CA01EA3004F5E05DD801EE938D019A
:1009A000232B242B252B79F790E080E0109729F05A
:1009B000BD0189EB92E00E949904A1960FB6F894CC
:1009C000DEBF0FBECDBFDF91CF911F910F91BF90C2
:1009D000AF909F908F900895E95CDFCFCF93DF9326
:1009E000BC018CE192E00E949904EC0160E471E0AA
:1009F0008CE192E00E9499048C0F9D1FDF91CF91B2
:100A000008954F925F926F927F928F929F92AF92D2
:100A1000BF92CF92DF92EF92FF920F931F93CF93EB
:100A20006B017C01742EAC019B010E94B40E63E447
:100A300071E0811126C046015701E894B7F82FEF05
:100A40003FEF4FE75FE7C501B4010E94B40E81118B
:100A50000CC02FEF3FEF4FE75FE7C501B4010E94E5
:100A6000EA0C67E471E0181664F02FEF3FEF4FE7F0
:100A70005FE4C701B6010E94420E1816ACF46BE4A5
:100A800071E089EB92E0CF911F910F91FF90EF9071
:100A9000DF90CF90BF90AF909F908F907F906F909E
:100AA0005F904F900C9499042FEF3FEF4FE75FEC6E
:100AB000C701B6010E94EA0C87FDE1CF20E030E0DB
:100AC000A901C701B6010E94EA0C10E000E087FF0F
:100AD0000CC041E06DE289EB92E00E949103F7FACD
:100AE000F094F7F8F09401E010E0C0E060E070E00E
:100AF00080E09FE37C1641F020E030E040E251E4EA
:100B00000E94EF0CCF5FF6CFA70196010E947E0CEA
:100B10004B015C010E94610D2B013C014AE00E94E7
:100B2000A804080F191FCC23C9F1C301B2010E9408
:100B3000900D9B01AC01C501B4010E947D0C4B01DD
:100B40005C0141E06EE289EB92E00E9491030F5F4D
:100B50001F4FC15018F120E030E040E251E4C501E0
:100B6000B4010E94470E2B013C010E94610D4B0114
:100B7000B12CA12C4AE0C501B4010E94A804080FC1
:100B8000191FC501B4010E94900D9B01AC01C30166
:100B9000B2010E947D0C4B015C01DBCFC801CF91FB
:100BA0001F910F91FF90EF90DF90CF90BF90AF908B
:100BB0009F908F907F906F905F904F9008951F92BD
:100BC0000F920FB60F9211242F933F934F935F9381
:100BD0006F937F938F939F93AF93BF93EF93FF9305
:100BE0008CE192E00E945C01FF91EF91BF91AF9187
:100BF0009F918F917F916F915F914F913F912F9135
:100C00000F900FBE0F901F9018951F920F920FB666
:100C10000F9211242F938F939F93EF93FF93E09163
:100C20002C02F0912D028081E0913202F09133028A
:100C300082FD1BC09081809135028F5F8F73209160
:100C40003602821741F0E0913502F0E0E45EFD4F9C
:100C5000958F80933502FF91EF919F918F912F9106
:100C60000F900FBE0F901F9018958081F4CF1F92A8
:100C70000F920FB60F9211242F933F938F939F9350
:100C8000AF93BF938091180290911902A0911A021C
:100C9000B0911B023091040223E0230F2D3758F549
:100CA0000196A11DB11D2093040280931802909318
:100CB0001902A0931A02B0931B0280910502909131
:100CC0000602A0910702B09108020196A11DB11D74
:100CD0008093050290930602A0930702B093080246
:100CE000BF91AF919F918F913F912F910F900FBE28
:100CF0000F901F90189526E8230F0296A11DB11D95
:100D0000D2CF10921F0210921E0288EE93E0A0E054
:100D1000B0E08093200290932102A0932202B0932E
:100D200023028CE191E090931D0280931C0285ECDC
:100D300090E0909329028093280284EC90E09093B5
:100D40002B0280932A0280EC90E090932D028093F6
:100D50002C0281EC90E090932F0280932E0282EC83
:100D600090E0909331028093300286EC90E0909373
:100D700033028093320210923502109236021092A2
:100D80003702109238021092D3021092D7021092BA
:100D9000D6021092D8028AE391E09093D202809317
:100DA000D102EDEEF2E010821482138215823696A3
:100DB00083E0E932F807B9F784E091E090933403D7
:100DC0008093330380E091E0909336038093350362
:100DD00084E0809337038093380388E091E0909318
:100DE0003203809331038AE090E090933A0380933A
:100DF000390384EF91E090933C0380933B0310927E
:100E00003F0310923E0310922D0310922E03109276
:100E10002F031092300310923D031092BC021092E7
:100E2000BB028EE291E09093BA028093B90288E00F
:100E30008093BD028FEF8093BE0289E08093BF0252
:100E40008AE08093C0028BE08093C1028CE08093A3
:100E5000C2028DE08093C3021092C4021092C502B8
:100E60001092C6021092C7021092C80281E00C9440
:100E7000F203789484B5826084BD84B5816084BDBA
:100E800085B5826085BD85B5816085BD80916E0028
:100E9000816080936E001092810080918100826059
:100EA0008093810080918100816080938100809196
:100EB00080008160809380008091B1008460809385
:100EC000B1008091B00081608093B00080917A0081
:100ED000846080937A0080917A00826080937A00A7
:100EE00080917A00816080937A0080917A00806896
:100EF00080937A001092C10082E00E94F2036FE4B6
:100F000071E089EB92E00E949904E091CC02E2301A
:100F100008F058C0E150F0E0E754FD4F8489806844
:100F20000E94E4036AE571E089EB92E00E94990473
:100F300060ED77E080E090E00E9418030E94EA03F1
:100F4000412C512C320143946DE0262E63E0362E65
:100F50004FE2842E9924939490923D038FB7F89496
:100F6000409118025091190260911A0270911B026F
:100F70008FBF80912D0390912E03A0912F03B091EC
:100F80003003481B590B6A0B7B0B809139039091FE
:100F90003A03B0E0A0E084179507A607B70708F06A
:100FA00097C1C0E080913703C81770F4E091330314
:100FB000F0913403EC0FF11D62E080810E94B302D6
:100FC000CF5FF0CFE1E0A7CF10E080913803181792
:100FD00008F05FC0E12EF12CE0913503F09136036B
:100FE000EE0DFF1D61E080810E94B302E0913503A8
:100FF000F0913603EE0DFF1D60E080810E948102BA
:10100000D301C201012E04C0880F991FAA1FBB1F64
:101010000A94D2F75C016C01C094D09400E08091F6
:1010200037030817F8F4C02FD0E0E0913303F091B4
:101030003403EC0FFD1F80810E9455022496CC0FD3
:10104000DD1FCF52DD4F892B41F4888199818A2998
:101050009B29998388830F5FE2CF888199818C21B6
:101060009D21F7CFE0913503F0913603EE0DFF1D82
:1010700061E080810E948102809135039091360366
:10108000E80EF91E60E0F70180810E94B3021F5F45
:101090009CCFC1EDD2E08E01F801878D90A1892B04
:1010A00031F4148E2FEF3FEF368F258F11A20A5F98
:1010B0001F4F2016310681F7F12C80913703F81667
:1010C00008F053C0E12C8F2D90E0880F991FFC0190
:1010D000E752FD4F6F0120913803E21608F043C03C
:1010E000F601608171810E2C02C0769567950A9495
:1010F000E2F7F29E900111242E0D311DE1EDF2E098
:1011000080E0458D568D2417350709F4F4C38F5FB1
:1011100036968A30B1F760FF24C0E1EDF2E090E04E
:1011200080E0448D411118C0E0913103F091320309
:10113000E20FF31F408156E0589FF001599FF00DD8
:101140001124EF52FD4F448F368F258F10A2178E3A
:1011500061E00E94AF0005C0019636968A30910585
:1011600001F7E394B8CFF394A8CF80E099A191114F
:10117000892F26960C171D07C9F79FB7F894409141
:1011800018025091190260911A0270911B029FBFC0
:1011900040932D0350932E0360932F0370933003DD
:1011A000882309F495C08091F202882309F490C045
:1011B0008091F0029091F102019709F089C0C091ED
:1011C000ED02C0931702C11188C0C0901202D090E6
:1011D0001302E0901402F090150280911602882309
:1011E000C9F0809111028B3209F055C3A701960115
:1011F00060910D0270910E0280910F029091100289
:101200000E947E0C6093090270930A0280930B0285
:1012100090930C02E1E08091CC028111E0E0E19535
:10122000F0E0E754FD4F848980680E94E40342E0C7
:10123000C701B6010E94010541E06091110289EBEE
:1012400092E00E94910360910D0270910E028091D4
:101250000F029091100242E00E9401058091160257
:10126000882389F060E072E089EB92E00E949904A3
:101270006091090270910A0280910B0290910C0218
:1012800042E00E940105E091CC02E23008F031C357
:10129000E150F0E0E754FD4F848980680E94E40348
:1012A0006091090270910A0280910B0290910C02E8
:1012B00042E00E940105E0E0F0E0EF2B09F44CCEA3
:1012C0000E94EB01882309F445CE0E94000040CE25
:1012D00010923D031092170278CF0E94EA03CA329F
:1012E000F1F48EE591E00E94EE0410920D0210924E
:1012F0000E0210920F02109210021092120210921F
:101300001302109214021092150210920902109208
:101310000A0210920B0210920C0210921602809197
:101320001702813309F58CE691E00E94EE04C0902B
:101330000902D0900A02E0900B02F0900C0220E02B
:1013400030E0A901C701B6010E94EA0C8111BEC1BB
:1013500080E090E0A0E8BFE38093090290930A0246
:10136000A0930B02B0930C0280911702843309F50D
:1013700085E791E00E94EE04C0900902D0900A0235
:10138000E0900B02F0900C0220E030E0A901C701D0
:10139000B6010E94EA0C8111B0C180E090E0A0E8A3
:1013A000B0E48093090290930A02A0930B02B093D9
:1013B0000C0280911702873309F58EE791E00E94B5
:1013C000EE04C0900902D0900A02E0900B02F09067
:1013D0000C0220E030E0A901C701B6010E94EA0C2E
:1013E0008111A2C180E090E0A0EEB0E480930902F8
:1013F00090930A02A0930B02B0930C028091170203
:101400008033E9F487E891E00E94EE04C09009027D
:10141000D0900A02E0900B02F0900C0220E030E045
:10142000A901C701B6010E94EA0C811194C1109272
:10143000090210920A0210920B0210920C02809183
:101440001702823309F580E991E00E94EE04C09012
:101450000902D0900A02E0900B02F0900C0220E00A
:1014600030E0A901C701B6010E94EA0C811189C1CF
:1014700080E090E0A0E0B0E48093090290930A023B
:10148000A0930B02B0930C0280911702853309F5EB
:1014900089E991E00E94EE04C0900902D0900A020E
:1014A000E0900B02F0900C0220E030E0A901C701AF
:1014B000B6010E94EA0C81117BC180E090E0A0EAB5
:1014C000B0E48093090290930A02A0930B02B093B8
:1014D0000C0280911702883309F582EA91E00E949C
:1014E000EE04C0900902D0900A02E0900B02F09046
:1014F0000C0220E030E0A901C701B6010E94EA0C0D
:1015000081116DC180E090E0A0E0B1E48093090218
:1015100090930A02A0930B02B0930C0280911702E1
:101520008332B1F48BEA91E00E94EE0480910902CB
:1015300090910A02A0910B02B0910C0280930D02CF
:1015400090930E02A0930F02B09310029092160295
:1015500080911702833309F588EB91E00E94EE0435
:10156000C0900902D0900A02E0900B02F0900C02A9
:1015700020E030E0A901C701B6010E94EA0C811108
:1015800045C180E090E0A0E4B0E48093090290932C
:101590000A02A0930B02B0930C02809117028633CB
:1015A00009F581EC91E00E94EE04C0900902D09010
:1015B0000A02E0900B02F0900C0220E030E0A9015A
:1015C000C701B6010E94EA0C811137C180E090E0AA
:1015D000A0ECB0E48093090290930A02A0930B025E
:1015E000B0930C0280911702893309F58AEC91E0DF
:1015F0000E94EE04C0900902D0900A02E0900B0213
:10160000F0900C0220E030E0A901C701B6010E9471
:10161000EA0C811129C180E090E0A0E1B1E480935F
:10162000090290930A02A0930B02B0930C028091DE
:1016300017029FEB980F943008F0C7CD4091090234
:1016400050910A0260910B0270910C0240931202B9
:1016500050931302609314027093150210920902C2
:1016600010920A0210920B0210920C02813439F48B
:1016700083ED91E00E94EE048BE280931102809151
:101680001702823439F48CED91E00E94EE048DE271
:101690008093110280911702833439F488EE91E02F
:1016A0000E94EE049AE29093110280911702843412
:1016B00031F487EF91E00E94EE048092110264E61B
:1016C00070E080E090E00E9418037FCD20E030E0E1
:1016D00040E251E4C701B6010E94470E20E030E02D
:1016E00040E85FE30E947E0C6093090270930A0257
:1016F00080930B0290930C0237CE20E030E040E262
:1017000051E4C701B6010E94470E20E030E040E8F6
:1017100050E40E947E0C6093090270930A02809349
:101720000B0290930C0245CE20E030E040E251E401
:10173000C701B6010E94470E20E030E040EE50E4C1
:101740000E947E0C6093090270930A0280930B0240
:1017500090930C0253CE20E030E040E251E4C70108
:10176000B6010E94470E20E030E0A9010E947E0CE5
:101770006093090270930A0280930B0290930C020B
:101780005ECE20E030E040E251E4C701B6010E94A5
:10179000470E20E030E040E050E40E947E0C609371
:1017A000090270930A0280930B0290930C026CCE94
:1017B00020E030E040E251E4C701B6010E94470E4C
:1017C00020E030E040EA50E40E947E0C6093090281
:1017D00070930A0280930B0290930C027ACE20E061
:1017E00030E040E251E4C701B6010E94470E20E01C
:1017F00030E040E051E40E947E0C60930902709357
:101800000A0280930B0290930C0288CE20E030E015
:1018100040E251E4C701B6010E94470E20E030E0EB
:1018200040E450E40E947E0C6093090270930A0227
:1018300080930B0290930C02B0CE20E030E040E2A7
:1018400051E4C701B6010E94470E20E030E040ECB1
:1018500050E40E947E0C6093090270930A02809308
:101860000B0290930C02BECE20E030E040E251E447
:10187000C701B6010E94470E20E030E040E151E48C
:101880000E947E0C6093090270930A0280930B02FF
:1018900090930C02CCCE8D3269F420910D023091E0
:1018A0000E0240910F0250911002C701B6010E9432
:1018B0007D0CA8CC8A3269F4A701960160910D02D3
:1018C00070910E0280910F02909110020E94470EBB
:1018D00099CC8F3209F09ECC20910D0230910E02EE
:1018E00040910F0250911002C701B6010E94EF0C07
:1018F00089CCE1E0CECC61702CCC5058BB27AA2714
:101900000E94950C0C94080E0E94FA0D38F00E946B
:10191000010E20F039F49F3F19F426F40C94F70DD2
:101920000EF4E095E7FB0C94F10DE92F0E94190EDF
:1019300058F3BA17620773078407950720F079F404
:10194000A6F50C943B0E0EF4E0950B2EBA2FA02DAD
:101950000B01B90190010C01CA01A0011124FF275C
:10196000591B99F0593F50F4503E68F11A16F04057
:10197000A22F232F342F4427585FF3CF4695379556
:101980002795A795F0405395C9F77EF41F16BA0B1B
:10199000620B730B840BBAF09150A1F0FF0FBB1FC9
:1019A000661F771F881FC2F70EC0BA0F621F731F12
:1019B000841F48F4879577956795B795F7959E3F6F
:1019C00008F0B0CF9395880F08F09927EE0F979500
:1019D000879508950E94CD0D08F481E008950E9436
:1019E000030D0C94080E0E94010E58F00E94FA0D8F
:1019F00040F029F45F3F29F00C94F10D51110C9443
:101A00003C0E0C94F70D0E94190E68F39923B1F364
:101A1000552391F3951B550BBB27AA276217730714
:101A2000840738F09F5F5F4F220F331F441FAA1FA8
:101A3000A9F335D00E2E3AF0E0E832D09150504064
:101A4000E695001CCAF72BD0FE2F29D0660F771F12
:101A5000881FBB1F261737074807AB07B0E809F0F8
:101A6000BB0B802DBF01FF2793585F4F3AF09E3F7D
:101A7000510578F00C94F10D0C943C0E5F3FE4F3AB
:101A8000983ED4F3869577956795B795F7959F5FC0
:101A9000C9F7880F911D9695879597F90895E1E00C
:101AA000660F771F881FBB1F621773078407BA076B
:101AB00020F0621B730B840BBA0BEE1F88F7E095C6
:101AC00008950E94210E88F09F5798F0B92F99270A
:101AD000B751B0F0E1F0660F771F881F991F1AF019
:101AE000BA95C9F714C0B13091F00E943B0EB1E035
:101AF00008950C943B0E672F782F8827B85F39F034
:101B0000B93FCCF3869577956795B395D9F73EF4B1
:101B100090958095709561957F4F8F4F9F4F089559
:101B2000E89409C097FB3EF4909580957095619577
:101B30007F4F8F4F9F4F9923A9F0F92F96E9BB272D
:101B40009395F695879577956795B795F111F8CFA9
:101B5000FAF4BB0F11F460FF1BC06F5F7F4F8F4F14
:101B60009F4F16C0882311F096E911C0772321F00A
:101B70009EE8872F762F05C0662371F096E8862FA2
:101B800070E060E02AF09A95660F771F881FDAF7F9
:101B9000880F9695879597F90895990F0008550F26
:101BA000AA0BE0E8FEEF16161706E807F907C0F0E3
:101BB00012161306E407F50798F0621B730B840BEB
:101BC000950B39F40A2661F0232B242B252B21F4C5
:101BD00008950A2609F4A140A6958FEF811D811D65
:101BE000089597F99F6780E870E060E008959FEF9F
:101BF00080EC089500240A941616170618060906A4
:101C0000089500240A941216130614060506089572
:101C1000092E0394000C11F4882352F0BB0F40F4FA
:101C2000BF2B11F460FF04C06F5F7F4F8F4F9F4F3A
:101C3000089557FD9058440F551F59F05F3F71F0BC
:101C40004795880F97FB991F61F09F3F79F0879523
:101C50000895121613061406551FF2CF4695F1DFAC
:101C600008C0161617061806991FF1CF869571053C
:101C7000610508940895E894BB2766277727CB0170
:101C800097F908950E94CD0D08F48FEF08950E94F2
:101C90005A0E0C94080E0E94FA0D38F00E94010EA4
:101CA00020F0952311F00C94F10D0C94F70D1124F4
:101CB0000C943C0E0E94190E70F3959FC1F3950F82
:101CC00050E0551F629FF001729FBB27F00DB11DC0
:101CD000639FAA27F00DB11DAA1F649F6627B00D50
:101CE000A11D661F829F2227B00DA11D621F739F39
:101CF000B00DA11D621F839FA00D611D221F749F47
:101D00003327A00D611D231F849F600D211D822F8D
:101D1000762F6A2F11249F5750409AF0F1F08823B4
:101D20004AF0EE0FFF1FBB1F661F771F881F9150E1
:101D30005040A9F79E3F510580F00C94F10D0C9492
:101D40003C0E5F3FE4F3983ED4F386957795679514
:101D5000B795F795E7959F5FC1F7FE2B880F911D0B
:101D60009695879597F908950E94CD0D880B990B4C
:101D70000895A1E21A2EAA1BBB1BFD010DC0AA1FCC
:101D8000BB1FEE1FFF1FA217B307E407F50720F0E4
:101D9000A21BB30BE40BF50B661F771F881F991F5F
:101DA0001A9469F760957095809590959B01AC01A8
:101DB000BD01CF010895EE0FFF1F0590F491E02DB6
:061DC0000994F894FFCF26
:101DC6000405060700010203313233413435364239
:101DD600373839432A302344000000007E01FF01D2
:101DE6001F01CB0150012E014201000000009304A7
:101DF600FF014B034A0300000000EF02AF027E0220
:101E06000D0A006E616E00696E66006F7666004BA5
:101E1600414C4B554C41544F52002E2E2E004275CC
:101E260074746F6E2043616E63656C0042757474E2
:101E36006F6E203100427574746F6E2034004275E7
:101E460074746F6E203700427574746F6E203000A4
:101E5600427574746F6E203200427574746F6E2012
:101E66003500427574746F6E203800427574746F55
:101E76006E20457175616C00427574746F6E203307
:101E860000427574746F6E203600427574746F6EFE
:101E96002039004164646974696F6E005375627419
:101EA60072616374696F6E004D756C7469706C69EC
:101EB600636174696F6E004465766573696F6E0061
:041EC600203D0000BB
:00000001FF
